:100000000C9462000C948A000C948A000C948A0070
:100010000C948A000C948A000C948A000C948A0038
:100020000C948A000C948A000C948A000C948A0028
:100030000C948A000C948A000C948A000C948A0018
:100040000C9457020C948A000C94C7020C94A102E1
:100050000C948A000C948A000C948A000C948A00F8
:100060000C948A000C948A000000000024002700F1
:100070002A000000000023002600290000000000E4
:10008000250028002B0004040404040404040202D4
:100090000202020203030303030301020408102007
:1000A0004080010204081020010204081020000012
:1000B0000008000201000003040700000000000027
:1000C00000000E0511241FBECFEFD8E0DEBFCDBF6C
:1000D00011E0A0E0B1E0EEE5FEE002C005900D9277
:1000E000A032B107D9F721E0A0E2B1E001C01D9232
:1000F000A63CB207E1F710E0C2E6D0E004C02197C9
:10010000FE010E942707C136D107C9F70E943E03AE
:100110000C942D070C940000E0EBF0E02491ECE946
:10012000F0E09491E8E8F0E0E491EE23C9F02223B6
:1001300039F0233001F1A8F4213019F1223029F1EE
:10014000F0E0EE0FFF1FE458FF4FA591B4912FB7D9
:10015000F894EC91811126C090959E239C932FBF1B
:1001600008952730A9F02830C9F0243049F72091AC
:1001700080002F7D03C0209180002F772093800086
:10018000DFCF24B52F7724BDDBCF24B52F7DFBCF68
:100190002091B0002F772093B000D2CF2091B000F3
:1001A0002F7DF9CF9E2BDACF3FB7F89480912501B0
:1001B00090912601A0912701B091280126B5A89B16
:1001C00005C02F3F19F00196A11DB11D3FBFBA2FE9
:1001D000A92F982F8827BC01CD01620F711D811DA9
:1001E000911D42E0660F771F881F991F4A95D1F72E
:1001F0000895AF92BF92CF92DF92EF92FF920F934A
:100200001F93CF93DF936C017B018B01040F151FAC
:10021000EB015E01AE18BF08C017D10759F0699114
:10022000D601ED91FC910190F081E02DC601099578
:10023000892B79F7C501DF91CF911F910F91FF9025
:10024000EF90DF90CF90BF90AF900895FC01538D59
:10025000448D252F30E0842F90E0821B930B5417A0
:1002600010F0CF96089501970895FC01918D828D2D
:10027000981761F0A28DAE0FBF2FB11D5D968C91C6
:10028000928D9F5F9F73928F90E008958FEF9FEF05
:100290000895FC01918D828D981731F0828DE80FC1
:1002A000F11D858D90E008958FEF9FEF0895FC017B
:1002B000918D228D892F90E0805C9F4F821B910948
:1002C0008F739927089589E291E00E94570121E0F8
:1002D000892B09F420E0822F089580E090E0892B9B
:1002E00029F00E94630181110C9400000895FC0123
:1002F000A48DA80FB92FB11DA35ABF4F2C91848D87
:1003000090E001968F739927848FA689B7892C93E3
:10031000A089B1898C91837080648C93938D848D36
:10032000981306C00288F389E02D80818F7D808339
:100330000895EF92FF920F931F93CF93DF93EC01F9
:1003400081E0888F9B8D8C8D98131AC0E889F9897C
:10035000808185FF15C09FB7F894EE89FF8960837F
:10036000E889F98980818370806480839FBF81E000
:1003700090E0DF91CF911F910F91FF90EF90089542
:10038000F62E0B8D10E00F5F1F4F0F731127E02E1D
:100390008C8D8E110CC00FB607FCFACFE889F98955
:1003A000808185FFF5CFCE010E947701F1CFEB8DE3
:1003B000EC0FFD2FF11DE35AFF4FF0829FB7F89429
:1003C0000B8FEA89FB8980818062CFCFCF93DF9347
:1003D000EC01888D8823B9F0AA89BB89E889F9895D
:1003E0008C9185FD03C0808186FD0DC00FB607FC92
:1003F000F7CF8C9185FFF2CF808185FFEDCFCE01C5
:100400000E947701E9CFDF91CF910895FC0101901F
:100410000020E9F73197AF01481B590BBC0189E275
:1004200091E00C94F9008F929F92AF92BF920F933C
:100430001F93CF93DF93CDB7DEB7A1970FB6F89494
:10044000DEBF0FBECDBF19A2423008F44AE08E01D4
:100450000F5D1F4F842E912CB12CA12CA50194016E
:100460000E940507E62FB901CA01EA30F4F4E05D05
:10047000D801EE938D01232B242B252B79F790E0C7
:1004800080E0109719F0CD010E940602A1960FB6E8
:10049000F894DEBF0FBECDBFDF91CF911F910F91BA
:1004A000BF90AF909F908F900895E95CE1CF1F922D
:1004B0000F920FB60F9211242F933F938F939F9318
:1004C000AF93BF938091210190912201A0912301CC
:1004D000B09124013091200123E0230F2D3758F5EE
:1004E0000196A11DB11D20932001809321019093BD
:1004F0002201A0932301B0932401809125019091C2
:100500002601A0912701B09128010196A11DB11DDE
:100510008093250190932601A0932701B093280191
:10052000BF91AF919F918F913F912F910F900FBEEF
:100530000F901F90189526E8230F0296A11DB11D5C
:10054000D2CF1F920F920FB60F9211242F933F9389
:100550004F935F936F937F938F939F93AF93BF93CB
:10056000EF93FF9389E291E00E947701FF91EF9171
:10057000BF91AF919F918F917F916F915F914F91BB
:100580003F912F910F900FBE0F901F9018951F92C3
:100590000F920FB60F9211242F938F939F93EF9387
:1005A000FF93E0913901F0913A018081E0913F01A0
:1005B000F091400182FD1BC09081809142018F5FCC
:1005C0008F7320914301821741F0E0914201F0E0E6
:1005D000E75DFE4F958F80934201FF91EF919F91D0
:1005E0008F912F910F900FBE0F901F9018958081C3
:1005F000F4CFCF92DF92EF92FF920F931F93E82FE9
:10060000F92F05C0015011092109310961F19081CB
:1006100096239417B9F305C0015011092109310936
:1006200011F1908196239413F7CFC12CD12CE12C9A
:10063000F12C0AC08FEFC81AD80AE80AF80A0C157C
:100640001D052E053F0579F080818623841791F3DF
:100650006C2D7D2D8E2D9F2D1F910F91FF90EF9072
:10066000DF90CF90089560E070E080E090E01F910F
:100670000F91FF90EF90DF90CF900895789484B51C
:10068000826084BD84B5816084BD85B5826085BD8E
:1006900085B5816085BD80916E00816080936E001C
:1006A000109281008091810082608093810080910E
:1006B00081008160809381008091800081608093BF
:1006C00080008091B10084608093B1008091B0007F
:1006D00081608093B00080917A00846080937A007A
:1006E00080917A00826080937A0080917A008160A4
:1006F00080937A0080917A00806880937A001092CB
:10070000C100ECE9F0E02491E8E8F0E0849188236E
:1007100099F090E0880F991FFC01E859FF4FA591CF
:10072000B491FC01E458FF4F859194918FB7F894F0
:10073000EC91E22BEC938FBFEDE9F0E02491E9E836
:10074000F0E084918823C1F090E0880F991FFC01AC
:10075000E859FF4FA591B491FC01E458FF4FC591B2
:10076000D4913FB7F8949C91822F809598239C93C5
:100770009881892388833FBFE0913901F0913A0144
:1007800082E08083E0913501F09136011082E091A2
:100790003701F09138018FEC808310924101E09194
:1007A0003D01F0913E0186E08083E0913B01F091B4
:1007B0003C01808180618083E0913B01F0913C01AC
:1007C000808188608083E0913B01F0913C018081D1
:1007D00080688083E0913B01F0913C0180818F7DB6
:1007E000808323E2222E312CC0E0D0E080E00E9402
:1007F0008C0083E090E00197F1F781E00E948C008B
:10080000C1010197F1F780E00E948C00EDE9F0E072
:100810006491E9E8F0E08491E82FF0E0EE0FFF1F2B
:10082000EE58FF4F8591949100E412E42FE030E000
:10083000462F0E94F902611571058105910529F085
:100840006F5F7F4F8F4F9F4F9F700E94DE0526E99D
:1008500033E44BE05DE30E94930620E030E040E0AB
:100860005FE30E94930625E83BEE41E85FE30E94C8
:100870003C056B017C014B015C01AC019B010E94BA
:1008800000078823B9F182E191E00E9406028EE11F
:1008900091E00E9406020E94D4004B015C0184E6B4
:1008A000C82ED12CE12CF12C0E94D40068197909B2
:1008B0008A099B09683E734081059105A8F3F1E020
:1008C000CF1AD108E108F10828EE820E23E0921E2B
:1008D000A11CB11CC114D104E104F10429F7209733
:1008E00009F484CF0E946301882309F47FCF0E941A
:1008F00000007CCF26013701E89477F82FEF3FEF17
:100900004FE75FE7C301B2010E94000781110DC0EC
:100910002FEF3FEF4FE75FE7C301B2010E94A80549
:1009200018161CF486E191E0B0CF2FEF3FEF4FE7B0
:100930005FE4C701B6010E948E0618161CF48AE116
:1009400091E0A3CF2FEF3FEF4FE75FECC701B60178
:100950000E94A80587FDF3CF20E030E0A901C70180
:10096000B6010E94A80587FF0BC06DE289E291E005
:100970000E94990146015701B7FAB094B7F8B094B4
:100980002AE037ED43EA5BE3C501B4010E943C0570
:100990004B015C010E94AD056B017C010E94DC05EE
:1009A0009B01AC01C501B4010E943B054B015C01F8
:1009B0004AE0C701B6010E9413026EE289E291E0AB
:1009C0000E94990120E030E040E251E4C501B40109
:1009D0000E9493064B015C010E94AD056B01F12C56
:1009E000E12C4AE0C701B6010E941302C701B6011B
:1009F0000E94DC059B01AC01C501B4010E943B05CE
:100A000020E030E040E251E40E9493060E94AD05F0
:100A100090E080E04AE00E94130239CFE9E2F1E081
:100A20001382128288EE93E0A0E0B0E08483958385
:100A3000A683B78384E091E09183808385EC90E086
:100A40009587848784EC90E09787868780EC90E098
:100A5000918B808B81EC90E0938B828B82EC90E089
:100A6000958B848B86EC90E0978B868B118E128E03
:100A7000138E148E08955058BB27AA270E94530541
:100A80000C9454060E94460638F00E944D0620F051
:100A900039F49F3F19F426F40C9443060EF4E095C4
:100AA000E7FB0C943D06E92F0E94650658F3BA1740
:100AB000620773078407950720F079F4A6F50C9474
:100AC00087060EF4E0950B2EBA2FA02D0B01B9016D
:100AD00090010C01CA01A0011124FF27591B99F0B4
:100AE000593F50F4503E68F11A16F040A22F232FC0
:100AF000342F4427585FF3CF469537952795A79510
:100B0000F0405395C9F77EF41F16BA0B620B730BB6
:100B1000840BBAF09150A1F0FF0FBB1F661F771F27
:100B2000881FC2F70EC0BA0F621F731F841F48F4DC
:100B3000879577956795B795F7959E3F08F0B0CF65
:100B40009395880F08F09927EE0F9795879508954C
:100B50000E94190608F481E008950E946D0688F04D
:100B60009F5798F0B92F9927B751B0F0E1F0660F71
:100B7000771F881F991F1AF0BA95C9F714C0B130B2
:100B800091F00E948706B1E008950C948706672FC4
:100B9000782F8827B85F39F0B93FCCF386957795E1
:100BA0006795B395D9F73EF49095809570956195CA
:100BB0007F4F8F4F9F4F0895E89409C097FB3EF4F5
:100BC00090958095709561957F4F8F4F9F4F99239A
:100BD000A9F0F92F96E9BB279395F6958795779518
:100BE0006795B795F111F8CFFAF4BB0F11F460FFD8
:100BF0001BC06F5F7F4F8F4F9F4F16C0882311F030
:100C000096E911C0772321F09EE8872F762F05C043
:100C1000662371F096E8862F70E060E02AF09A95DE
:100C2000660F771F881FDAF7880F9695879597F9D3
:100C30000895990F0008550FAA0BE0E8FEEF16166D
:100C40001706E807F907C0F012161306E407F507C0
:100C500098F0621B730B840B950B39F40A2661F034
:100C6000232B242B252B21F408950A2609F4A140D7
:100C7000A6958FEF811D811D089597F99F6780E8E4
:100C800070E060E008959FEF80EC089500240A94DE
:100C90001616170618060906089500240A94121657
:100CA0001306140605060895092E0394000C11F48A
:100CB000882352F0BB0F40F4BF2B11F460FF04C037
:100CC0006F5F7F4F8F4F9F4F089557FD9058440F90
:100CD000551F59F05F3F71F04795880F97FB991F9B
:100CE00061F09F3F79F08795089512161306140658
:100CF000551FF2CF4695F1DF08C0161617061806E5
:100D0000991FF1CF86957105610508940895E894BF
:100D1000BB2766277727CB0197F908950E9419060C
:100D200008F48FEF08950E94A6060C9454060E94C2
:100D3000460638F00E944D0620F0952311F00C94E1
:100D40003D060C94430611240C9488060E94650607
:100D500070F3959FC1F3950F50E0551F629FF0010E
:100D6000729FBB27F00DB11D639FAA27F00DB11D27
:100D7000AA1F649F6627B00DA11D661F829F2227B0
:100D8000B00DA11D621F739FB00DA11D621F839F37
:100D9000A00D611D221F749F3327A00D611D231F0D
:100DA000849F600D211D822F762F6A2F11249F575B
:100DB00050409AF0F1F088234AF0EE0FFF1FBB1F5E
:100DC000661F771F881F91505040A9F79E3F51051D
:100DD00080F00C943D060C9488065F3FE4F3983E47
:100DE000D4F3869577956795B795F795E7959F5FC7
:100DF000C1F7FE2B880F911D9695879597F9089559
:100E00000E941906880B990B0895A1E21A2EAA1BBD
:100E1000BB1BFD010DC0AA1FBB1FEE1FFF1FA217AA
:100E2000B307E407F50720F0A21BB30BE40BF50BA7
:100E3000661F771F881F991F1A9469F76095709530
:100E4000809590959B01AC01BD01CF010895EE0FF7
:0E0E5000FF1F0590F491E02D0994F894FFCF58
:100E5E00000000009901F9002601E6015701350155
:100E6E0049016E616E00696E66006F766600200045
:00000001FF
