:100000000C945D000C9485000C9485000C94850084
:100010000C9485000C9485000C9485000C9485004C
:100020000C9485000C9485000C9485000C9485003C
:100030000C9485000C9485000C9485000C9485002C
:100040000C9432030C9485000C94A2030C947C0352
:100050000C9485000C9485000C9485000C9485000C
:100060000C9485000C94850000000008000201003B
:100070000003040700000000000000000000000072
:10008000250028002B0000000000240027002A0083
:10009000040404040404040402020202020203032E
:1000A0000303030301020408102040800102040836
:1000B0001020010204081020F60411241FBECFEF07
:1000C000D8E0DEBFCDBF21E0A6E1B1E001C01D92C6
:1000D000AC3BB207E1F711E0A0E0B1E0E0E3FDE006
:1000E00002C005900D92A631B107D9F710E0CDE519
:1000F000D0E004C02197FE010E949006CC35D107C4
:10010000C9F70E94D4030C9496060C94000090E06A
:10011000FC01EC55FF4F249180579F4FFC018491C7
:10012000882399F090E0880F991FFC01EA57FF4F50
:10013000A591B491FC01E458FF4F859194918FB73C
:10014000F894EC91E22BEC938FBF089590E0FC01C2
:10015000E859FF4F2491FC01EC55FF4F3491FC010D
:10016000E057FF4FE491EE23C9F0222339F023300A
:1001700001F1A8F4213019F1223029F1F0E0EE0F5D
:10018000FF1FE458FF4FA591B4918FB7F894EC91FD
:10019000611126C030953E233C938FBF08952730D0
:1001A000A9F02830C9F0243049F7809180008F7D74
:1001B00003C0809180008F7780938000DFCF84B56B
:1001C0008F7784BDDBCF84B58F7DFBCF8091B0006E
:1001D0008F778093B000D2CF8091B0008F7DF9CF20
:1001E0003E2BDACF3FB7F894809117019091180118
:1001F000A0911901B0911A0126B5A89B05C02F3F07
:1002000019F00196A11DB11D3FBFBA2FA92F982F3C
:100210008827BC01CD01620F711D811D911D42E037
:10022000660F771F881F991F4A95D1F708958F92FF
:100230009F92AF92BF92CF92DF92EF92FF926B01AB
:100240007C010E94F2004B015C01C114D104E10465
:10025000F104B9F00E94F200681979098A099B0932
:10026000683E73408105910580F321E0C21AD108F0
:10027000E108F10888EE880E83E0981EA11CB11CED
:10028000E4CFFF90EF90DF90CF90BF90AF909F9022
:100290008F900895AF92BF92CF92DF92EF92FF922C
:1002A0000F931F93CF93DF936C017B018B01040F9E
:1002B000151FEB015E01AE18BF08C017D10759F03A
:1002C0006991D601ED91FC910190F081E02DC6017C
:1002D0000995892B79F7C501DF91CF911F910F9176
:1002E000FF90EF90DF90CF90BF90AF900895FC010A
:1002F000538D448D252F30E0842F90E0821B930B8B
:10030000541710F0CF96089501970895FC01918D30
:10031000828D981761F0A28DAE0FBF2FB11D5D9633
:100320008C91928D9F5F9F73928F90E008958FEFD5
:100330009FEF0895FC01918D828D981731F0828D89
:10034000E80FF11D858D90E008958FEF9FEF0895E0
:100350002FB7F89480911B0190911C01A0911D0171
:10036000B0911E012FBF8093270190932801A09385
:100370002901B0932A018FE191E00E949A0197FF31
:1003800026C02FB7F89480911B0190911C01A09179
:100390001D01B0911E012FBF4091270150912801EE
:1003A0006091290170912A01841B950BA60BB70B54
:1003B0004091230150912401609125017091260103
:1003C00084179507A607B707B0F28FEF9FEF089540
:1003D0008F929F92AF92BF92CF92DF92EF92FF9255
:1003E000CF93DF930E94A801FC0197FD88C08D3256
:1003F000910509F04CC0812C912C80E8A82E8FE348
:10040000B82EC12CD12C7601C0E0D0E0E130F1054E
:1004100059F1ED32F10509F447C0EE32F10509F466
:1004200045C0CF01C0970A97F8F4AAE0B0E0A70151
:1004300096010E9447066F01FF0FEE08FF08C60EE7
:10044000D71EE81EF91E80E3C81AD108E108F1089A
:10045000CC2351F02DEC3CEC4CEC5DE3C501B40138
:100460000E9489054B015C018FE191E00E948601A9
:100470000E94A801FC01C0970A9740F2EE32F105F4
:10048000B9F4CC2319F2CD2FD11118C025C0C097D3
:100490000A9708F4B0CFEE32F10509F4ACCF8FE142
:1004A00091E00E9486019ECFD1E0DECFC1E0DCCF9B
:1004B000E130F10509F4AACFDD2341F0F094E09496
:1004C000D094C094C11CD11CE11CF11CC701B60121
:1004D0000E942A05CC2341F0C701B6010E942A05DB
:1004E000A50194010E948905DF91CF91FF90EF90C3
:1004F000DF90CF90BF90AF909F908F90089560E075
:1005000070E0CB01F1CFFC01918D228D892F90E01D
:10051000805C9F4F821B91098F73992708958FE10B
:1005200091E00E94830221E0892B09F420E0822FD0
:10053000089580E090E0892B29F00E948F028111BC
:100540000C9400000895FC01A48DA80FB92FB11DD3
:10055000A35ABF4F2C91848D90E001968F739927F9
:10056000848FA689B7892C93A089B1898C918370D7
:1005700080648C93938D848D981306C00288F389D0
:10058000E02D80818F7D80830895EF92FF920F93FD
:100590001F93CF93DF93EC0181E0888F9B8D8C8D2F
:1005A00098131AC0E889F989808185FF15C09FB723
:1005B000F894EE89FF896083E889F98980818370E6
:1005C000806480839FBF81E090E0DF91CF911F9195
:1005D0000F91FF90EF900895F62E0B8D10E00F5FB6
:1005E0001F4F0F731127E02E8C8D8E110CC00FB68C
:1005F00007FCFACFE889F989808185FFF5CFCE0124
:100600000E94A302F1CFEB8DEC0FFD2FF11DE35AF9
:10061000FF4FF0829FB7F8940B8FEA89FB898081A6
:100620008062CFCFCF93DF93EC01888D8823B9F020
:10063000AA89BB89E889F9898C9185FD03C08081ED
:1006400086FD0DC00FB607FCF7CF8C9185FFF2CF6A
:10065000808185FFEDCFCE010E94A302E9CFDF911B
:10066000CF9108951F920F920FB60F9211242F93DE
:100670003F938F939F93AF93BF9380911B01909172
:100680001C01A0911D01B0911E013091160123E0C3
:10069000230F2D3758F50196A11DB11D209316018A
:1006A00080931B0190931C01A0931D01B0931E0128
:1006B0008091170190911801A0911901B0911A0130
:1006C0000196A11DB11D8093170190931801A0936D
:1006D0001901B0931A01BF91AF919F918F913F91F2
:1006E0002F910F900FBE0F901F90189526E8230FA3
:1006F0000296A11DB11DD2CF1F920F920FB60F927D
:1007000011242F933F934F935F936F937F938F9316
:100710009F93AF93BF93EF93FF938FE191E00E947C
:10072000A302FF91EF91BF91AF919F918F917F9124
:100730006F915F914F913F912F910F900FBE0F904E
:100740001F9018951F920F920FB60F9211242F939E
:100750008F939F93EF93FF93E0912F01F0913001DE
:100760008081E0913501F091360182FD1BC09081BE
:10077000809138018F5F8F7320913901821741F08A
:10078000E0913801F0E0E15EFE4F958F80933801F3
:10079000FF91EF919F918F912F910F900FBE0F902E
:1007A0001F9018958081F4CF789484B5826084BDC1
:1007B00084B5816084BD85B5826085BD85B5816065
:1007C00085BD80916E00816080936E0010928100E3
:1007D000809181008260809381008091810081609E
:1007E000809381008091800081608093800080915F
:1007F000B10084608093B1008091B00081608093EB
:10080000B00080917A00846080937A0080917A00B1
:10081000826080937A0080917A00816080937A0070
:1008200080917A00806880937A001092C10088E0FD
:100830000E94870089E00E948700E0912F01F091DB
:10084000300182E08083E0912B01F0912C01108235
:10085000E0912D01F0912E018FEC808310923701F1
:10086000E0913301F091340186E08083E091310121
:10087000F0913201808180618083E0913101F091BB
:100880003201808188608083E0913101F0913201F2
:10089000808180688083E0913101F0913201808114
:1008A0008F7D8083C0E0D0E0C12CD12C88ECE82E75
:1008B00082E4F82E8FE191E00E9483021816190657
:1008C000D4F40E94E8014B015C0120E030E0A90172
:1008D0000E94230518160CF06EC0809200019092C1
:1008E0000101A0920201B092030161E070E080E09A
:1008F00090E00E9417018090000190900101A0906B
:100900000201B090030120E030E048E452E4C50168
:10091000B4010E94230518160CF45FC061E088E062
:100920000E94A60061E089E00E94A60020E030E07D
:1009300040E251E4C501B4010E9489050E946106AC
:100940004B015C010E94170160E088E00E94A60054
:1009500060E089E00E94A600C501B4010E94170171
:100960008FE191E00E94830218161906CCF40E94D0
:10097000E8014B015C0120E030E0A9010E94230561
:10098000181614F58092000190920101A0920201C4
:10099000B092030161E070E080E090E00E941701F6
:1009A000209709F487CF0E948F02882309F482CF11
:1009B0000E9400007FCFC0920001D0920101E0921E
:1009C0000201F092030191CFC0920001D092010187
:1009D000E0920201F0920301DDCF60E088E00E9426
:1009E000A60060E089E00E94A600DACFEFE1F1E026
:1009F0001382128288EE93E0A0E0B0E084839583B6
:100A0000A683B78388E091E09183808385EC90E0B2
:100A10009587848784EC90E09787868780EC90E0C8
:100A2000918B808B81EC90E0938B828B82EC90E0B9
:100A3000958B848B86EC90E0978B868B118E128E33
:100A4000138E148E08950E94650508F481E00895C0
:100A5000E89409C097FB3EF4909580957095619558
:100A60007F4F8F4F9F4F9923A9F0F92F96E9BB270E
:100A70009395F695879577956795B795F111F8CF8A
:100A8000FAF4BB0F11F460FF1BC06F5F7F4F8F4FF5
:100A90009F4F16C0882311F096E911C0772321F0EB
:100AA0009EE8872F762F05C0662371F096E8862F83
:100AB00070E060E02AF09A95660F771F881FDAF7DA
:100AC000880F9695879597F90895990F0008550F07
:100AD000AA0BE0E8FEEF16161706E807F907C0F0C4
:100AE00012161306E407F50798F0621B730B840BCC
:100AF000950B39F40A2661F0232B242B252B21F4A6
:100B000008950A2609F4A140A6958FEF811D811D45
:100B100008950E949C050C940D060E94FF0538F074
:100B20000E94060620F0952311F00C94F6050C9413
:100B3000FC0511240C9441060E941E0670F3959F3B
:100B4000C1F3950F50E0551F629FF001729FBB27C4
:100B5000F00DB11D639FAA27F00DB11DAA1F649F60
:100B60006627B00DA11D661F829F2227B00DA11D13
:100B7000621F739FB00DA11D621F839FA00D611D99
:100B8000221F749F3327A00D611D231F849F600DBA
:100B9000211D822F762F6A2F11249F5750409AF0E3
:100BA000F1F088234AF0EE0FFF1FBB1F661F771F6F
:100BB000881F91505040A9F79E3F510580F00C943A
:100BC000F6050C9441065F3FE4F3983ED4F3869516
:100BD00077956795B795F795E7959F5FC1F7FE2BDA
:100BE000880F911D9695879597F9089597F99F67B6
:100BF00080E870E060E008959FEF80EC08950024A5
:100C00000A941616170618060906089500240A9471
:100C100012161306140605060895092E0394000CF7
:100C200011F4882352F0BB0F40F4BF2B11F460FF86
:100C300004C06F5F7F4F8F4F9F4F089557FD9058AF
:100C4000440F551F59F05F3F71F04795880F97FB90
:100C5000991F61F09F3F79F087950895121613064A
:100C60001406551FF2CF4695F1DF08C01616170679
:100C70001806991FF1CF86957105610508940895AE
:100C8000E894BB2766277727CB0197F908950E9440
:100C90005206A59F900DB49F900DA49F800D911DAD
:100CA00011240895A29FB001B39FC001A39F700DAE
:100CB000811D1124911DB29F700D811D1124911D64
:100CC00008950E94260688F09F5798F0B92F99271B
:100CD000B751B0F0E1F0660F771F881F991F1AF027
:100CE000BA95C9F714C0B13091F00E944006B1E046
:100CF00008950C944006672F782F8827B85F39F045
:100D0000B93FCCF3869577956795B395D9F73EF4BF
:100D100090958095709561957F4F8F4F9F4F089567
:100D2000EE0FFF1F0590F491E02D0994F894FFCF8A
:100D30000000C84200000000C5024A01770112030A
:060D4000830286019A0106
:00000001FF
